:020000040800F2
:10000000B80400209D01000847060008910400087C
:100010004506000821020008F90A00080000000057
:10002000000000000000000000000000BD09000802
:100030002302000800000000BD060008E9090008CE
:10004000B7010008B7010008B7010008B7010008B0
:10005000B7010008B701000825020008B701000831
:10006000B7010008B7010008B7010008B701000890
:10007000B7010008B7010008B7010008B701000880
:10008000B7010008B7010008B7010008B701000870
:10009000B7010008B7010008B7010008B701000860
:1000A000B7010008B7010008B7010008B701000850
:1000B000B7010008B7010008B7010008B701000840
:1000C000B7010008B7010008B7010008B701000830
:1000D000B7010008B7010008B7010008B701000820
:1000E000B7010008B7010008B7010008B701000810
:1000F000B7010008B7010008B7010008B701000800
:10010000000000000000000000000000B70100082F
:10011000B7010008B7010008B7010008B7010008DF
:10012000B7010008B7010008B7010008B7010008CF
:10013000B7010008B701000800000000000000003F
:10014000B7010008B7010008B7010008000000006F
:10015000000000000000000000000000000000009F
:100160000000000000000000B7010008B70100080F
:10017000B7010008000000000000000000000000BF
:1001800000000000B7010008DFF80CD000F036F8DE
:1001900000480047910E0008B80400200648804738
:1001A00006480047FEE7FEE7FEE7FEE7FEE7FEE75C
:1001B000FEE7FEE7FEE7FEE7010A00088901000806
:1001C000421C10F8011B0029FBD1801A704730B582
:1001D0000B46014600202022012409E021FA02F505
:1001E0009D4205D303FA02F5491B04FA02F528449F
:1001F000151EA2F10102F1DC30BD0000064C074DD6
:1002000006E0E06840F0010394E8070098471034E6
:10021000AC42F6D3FFF7BCFF94120008B4120008FA
:10022000FEE7704710B5002000F028F8012818BF3D
:1002300010BD002000F0B6FB002808BF10BD064826
:10024000818A81F47F418182044901204860BDE8B0
:100250001040002000F004B80010004850000020BA
:1002600000F01F0120F01F0000F18040012200F586
:10027000803002FA01F1C0F81414704720F01F0218
:1002800002F1804202F580320021D2F800C400F071
:100290001F03012000FA03F3D2F814240CEA030030
:1002A0001A421CBF0028012108467047036890F8D5
:1002B00006C003F01F02012101FA02F223F01F031E
:1002C000BCF1000F7ED003F1804303F58033D3F8F7
:1002D00000C42CEA0202C3F80024036823F01F02C2
:1002E00002F1804202F58032D2F804C403F01F0309
:1002F00001FA03F32CEA0303C2F804340368027919
:1003000023F01F0C0CF1804C0CF5823C6244D2F8B7
:1003100000C003F01F0301FA03F34CEA0303136068
:10032000036823F01F0202F1804202F58032D2F806
:1003300008C403F01F0301FA03F32CEA0303C2F815
:100340000834036823F01F0202F1804202F5803274
:10035000D2F80CC403F01F0301FA03F32CEA0303E1
:10036000C2F80C344379102B0ED0026822F01F0023
:1003700000F1804000F582301844036802F01F024B
:100380009140194301607047036823F01F0202F196
:10039000804202F58032D2F808C403F01F0301FA4C
:1003A00003F34CEA0303C2F80834026822F01F008A
:1003B00000F1804000F58030D0F80C3402F01F02CC
:1003C000914000E003E01943C0F80C147047007935
:1003D00003F1804101F58231084401689143D1E77E
:1003E000F0B4002201254FF0030C00BF0C6805FAA1
:1003F00002F31C409C422ED10C79012C18BF022C18
:1004000014D1866854000CFA04F7BE4386604E7916
:1004100006FA04F4866834438460848824EA03037B
:10042000838084888B7993402343838006685300BC
:100430000CFA03F4A64306600E7907689E403E431B
:100440000660C66826EA0404C460CC7904FA03F3A3
:10045000C4682343C360521C102AC7D3F0BC704742
:100460004B07DB0E9A40C90800EB8100016A4FF090
:100470000F0C0CFA03F399430162016A1143016204
:10048000704702460020128A0A4218BF01207047B6
:10049000FEE70029016814BF41F0010121F00101CC
:1004A00001607047A0F1804110B5B1F5A8414FF04F
:1004B000010109D0880500F01BF9BDE810400021BA
:1004C0004FF4800000F014B94FF4001000F010F960
:1004D000BDE8104000214FF4001000F009B90246B9
:1004E000002092690A4218BF01207047026822F07A
:1004F000010202600268144B1A40D1E9013C42EA51
:100500000C221A4302600A6822F0706202610268DB
:1005100042F00102026000228260C2600B698A69B7
:100520001A438260826842F400428260CA680368AB
:100530001A4302604268496922F4004222F078427C
:100540001143416070470000FFE0CF0081627047B7
:1005500030B4D0F804C0029CC1F30901054D41EA52
:10056000024119430CEA050C214341EA0C014160A8
:1005700030BC7047009800FC70B586B02E4800F083
:10058000CFF82D484FF47A71002440680F26B0FB55
:10059000F1F0411EB1F1807F09D24FF0E0204161BE
:1005A000264AF02182F8141D84610721016101218E
:1005B000480500F085F84FF47F40012500908DF844
:1005C00004508DF8064003208DF805008DF8075083
:1005D00069461B48FFF704FF0121480400F070F84A
:1005E0008DF804408DF8074069464FF09040009523
:1005F000FFF7F6FE0121084600F086F800210846C4
:1006000000F0DDF98DF80C4008208DF80D00029403
:100610008DF80E5002A8FFF749FE06208DF8100055
:100620008DF811608DF812608DF8135004A800F059
:100630000BF806B070BD00006C0000200FE000E079
:1006400000100048FEE7704710B4C27801784FF000
:100650000F0C012322B3184A126801F1E02102F4C1
:10066000E062C2F5E062120AC2F104042CFA02F25E
:1006700090F801C00CFA04FC8478224042EA0C0293
:10068000120181F80024007800F01F0103FA01F143
:100690004009800000F1E020C0F8001110BC704754
:1006A00001F01F0003FA00F04909890001F1E0217F
:1006B000C1F8800110BC70470CED00E070470000ED
:1006C000044A0029516914BF084321EA000050611F
:1006D0007047000000100240044A0029D16914BF8D
:1006E000084321EA0000D06170470000001002407A
:1006F000044A0029116914BF084321EA000010616F
:100700007047000000100240044A0029916914BF9C
:10071000084321EA00009061704700000010024089
:100720002DE9F00F924A4FF0000C5168914B11F0F7
:100730000C0118BF042901D0082901D003601CE076
:100740005168D2F804C001F470114FF002041CF497
:10075000803F04EB914104BFDFF81CC201FB0CFC9D
:1007600009D0D2F82CC00CF00F0C0CF1010CB3FB2B
:10077000FCFC0CFB01FCC0F800C051680F247F4E4C
:1007800004EA111116F80180016821FA08F54560A4
:100790005468072707EA1424345D25FA04F48460BA
:1007A000D2F8049007EAD927F75D25FA07F6C66064
:1007B000D56A4FF01F09DFF8C8A109EA15153AF804
:1007C000155015F0100F1ABFBCFBF5F5056101615E
:1007D000D56A09EA55253AF8155015F0100F1ABFD9
:1007E000BCFBF5F545614161156B15F0100F0CBFB1
:1007F00083618161156B15F0200F0CBFC361C1616E
:10080000156B15F4807F06D0614502BF47454FEA5E
:100810004C05056200D00662156B15F4007F07D009
:10082000614502BF47454FEA4C0CC0F824C000D0D8
:100830004662D2F830C01CF0030F4FF4004C08BFE2
:10084000866214D0156B05F00305012D08BF816287
:100850000DD0156B05F00305022D08BFC0F828C0A8
:1008600005D0156B032636EA050508BF8362156BB4
:1008700015F4403F08BFC46217D0156B05F440352E
:10088000B5F5803F08BFC1620FD0156B05F4403548
:10089000B5F5003F08BFC0F82CC006D0156B4FF46B
:1008A000403636EA050508BFC362156B15F4402FC4
:1008B00008BF046317D0156B05F44025B5F5802FEC
:1008C00008BF01630FD0156B05F44025B5F5002F67
:1008D00008BFC0F830C006D0156B4FF4402636EA8A
:1008E000050508BF0363156B15F4401F08BF44637B
:1008F00017D0156B05F44015B5F5801F08BF41638F
:100900000FD0156B05F44015B5F5001F08BFC0F8F2
:1009100034C006D0156B4FF4401636EA050508BF03
:100920004363156B15F4400F02BF8463BDE8F00FFD
:100930007047146B04F44004B4F5800F02BF816368
:10094000BDE8F00F7047116B01F44001B1F5000FE5
:1009500002BFC0F838C0BDE8F00F7047116B4FF40C
:10096000400232EA010108BF8363BDE8F00F70471F
:100970000010024000127A0000093D00240000200F
:10098000340000200649020F0A6B14BF22F0200237
:1009900022F010020A630A6B1043086370470000DC
:1009A000001002400349044A31F8101052F82000A8
:1009B000FFF767BD5C1200080000002070478A073F
:1009C00021F0030101F1804101F58031120F0F2365
:1009D000D1F808C093402CEA03038B608B689040E9
:1009E00018438860704700000448816811B181682D
:1009F000491E81600168491C016070475000002059
:100A0000374882B0016841F47001016035480168DF
:100A100041F0010101604168334A114041600168C1
:100A200021F4102121F080710160016821F48021FE
:100A30000160416821F4FE014160C16A21F00F01AB
:100A4000C162016B294A1140016300228260019258
:100A50000092016841F4A0210160016801F40031B5
:100A600000910199491C0191009919B90199B1F5B9
:100A7000A06FF2D1016811F4003F08BF009229D0A5
:100A800001211B4A009112211160416841604168B7
:100A90004160416841F480614160416821F47C110A
:100AA0004160416841F4E8114160016841F08071A2
:100AB0000160016811F0007FFBD0416821F0030163
:100AC0004160416841F002014160416801F00C0160
:100AD0000829FAD107494FF00060086002B070475A
:100AE00088ED00E0001002400CC07FF8CCFC00FF55
:100AF0000020024008ED00E0FEE700000FB4084BC4
:100B000010B504A902AA039800F01CF8044602A933
:100B1000002000F0B8F9204610BC5DF814FB00007E
:100B2000870E000802E008C8121F08C1002AFAD187
:100B300070477047002001E001C1121F002AFBD15D
:100B4000704700002DE9FF4F8BB088460546002610
:100B500006E025280BD0DDE90D1290476D1C761CB0
:100B600028780028F5D10FB03046BDE8F08F00247A
:100B7000A146A2460122AE4900E0044315F8013F18
:100B8000203B02FA03F00842F7D128782A2810D037
:100B90006FF02F022878A0F13001092915D809EB50
:100BA000890102EB410144F0020400EB01096D1CD4
:100BB000F0E758F8041B5FEA010903D544F4005438
:100BC000C9F1000944F002046D1C28782E2817D1C1
:100BD00015F8010F44F004042A280ED06FF02F02FC
:100BE0002878A0F1300109290AD80AEB8A0102EB22
:100BF000410100EB010A6D1CF2E758F804AB6D1CD3
:100C000028786C280FD006DC4C2817D068280DD027
:100C10006A2814D104E0742810D07A280FD10DE08E
:100C200044F400140AE044F4801401E044F4401455
:100C30006978814202D104F580146D1C6D1C2878FE
:100C4000692865D006DC00288DD0632827D0642869
:100C500006D15DE06E2808D073282AD0752877D099
:100C6000DDE90D129047761CE0E0C4F30250022843
:100C700009D003280DD0D8F8001004280DD00E603C
:100C800008F10408D2E0D8F80010F217C1E90062B8
:100C9000F6E7D8F800100E80F2E70E70F0E718F8CB
:100CA000041B8DF8001000208DF80100EB46012098
:100CB00003E058F804BB4FF0FF3061074FF0000726
:100CC00001D40AE07F1C57450DDA8742FADB1BF896
:100CD00007100029F6D106E07F1C8742FCDB1BF8D9
:100CE00007100029F8D1DDE90D23A9EB07008146A3
:100CF000214600F0B1F83044C61904E0DDE90D12D8
:100D00001BF8010B90477F1EF8D22146484688E029
:100D100058F8040BC4F302514FF00A0B032900D119
:100D200000B2042900D140B2002802DA40422D214D
:100D300002E0210505D52B218DF82410012104E0C6
:100D400006E0E10710D02021F6E708AF089113E094
:100D500058F8040BC4F302514FF00A0B032900D1D9
:100D600080B2042900D1C0B20021EEE75946FFF756
:100D70002EFA303107F8011D0028F7D1ADEB07003E
:100D800000F1200B600702D524F4803401E04FF01D
:100D9000010ADA4502DDAAEB0B0000E000208246E2
:100DA00000EB0B0108980144A9EB01000A90E00355
:100DB00006D4DDE90D2321460A9800F04DF80644DB
:100DC0004FF0000908E009A911F80900DDE90D124A
:100DD000904709F10109761C08998945F3DBE00386
:100DE0000CD5DDE90D2321460A9800F035F80644BC
:100DF00004E0DDE90D1230209047761CBAF10001C5
:100E0000AAF1010AF5DC05E0DDE90D1217F8010B86
:100E10009047761CBBF10001ABF1010BF4DC0A98A2
:100E20002146DDE90D2300F005F806446D1C97E628
:100E3000092801002DE9F041044600251E46174609
:100E4000880404D405E039462020B0476D1C641E98
:100E5000F9D52846BDE8F0812DE9F041044600258A
:100E60001E469046C80301D5302700E0202788049D
:100E700004D505E041463846B0476D1C641EF9D5DF
:100E80002846BDE8F0810A68531C0B60107070475B
:100E90008AB00027FFF770FBE548FFF773FD0121DB
:100EA0008805FFF719FC01214804FFF709FC092117
:100EB0000422C806FFF7D4FA04220A214FF090401A
:100EC000FFF7CEFA02208DF8240001208DF82600CD
:100ED0004FF0000B8DF827B003208DF825004FF45C
:100EE0000070089008A94FF09040FFF779FA4FF48E
:100EF0008060089008A94FF09040FFF771FACD4E3E
:100F00003046FFF7CFFACDF814B0CB48CDF804B097
:100F10000090CDF80CB0CDF808B06946CDF818B007
:100F20003046FFF7E3FA01213046FFF7B2FA00BF7F
:100F30004FF400413046FFF7D2FA0028F8D14FF4C1
:100F40000054322500230322502130460094FFF73D
:100F5000FFFA02213046FFF7C2FA0028F9D0FE213D
:100F60003046FFF7F3FA02213046FFF7B8FA0028BF
:100F7000F9D052213046FFF7E9FA02213046FFF757
:100F8000AEFA0028F9D029463046FFF7DFFADFF83D
:100F9000ACA21420CAF80800DAF808000028FBD137
:100FA000082500230322502130460094FFF7D0FA91
:100FB00002213046FFF793FA0028F9D0FE2130468F
:100FC000FFF7C4FA02213046FFF789FA0028F9D06A
:100FD00053213046FFF7BAFA02213046FFF77FFA75
:100FE0000028F9D029463046FFF7B0FA1420CAF895
:100FF000080000BFDAF808000028FBD10023022215
:10100000502130460094FFF7A3FA02213046FFF743
:1010100066FA0028F9D0FE213046FFF797FA022140
:101020003046FFF75CFA0028F9D051213046FFF72F
:101030008DFA1420CAF80800DAF808000028FBD15D
:1010400000257F48FFF7BCF8002888BFDFF8F09143
:101050003ED900BF19F805800023032250213046F5
:101060000094FFF775FA02213046FFF738FA00289E
:10107000F9D0FE213046FFF769FA02213046FFF72A
:101080002EFA0028F9D045213046FFF75FFA0221F9
:101090003046FFF724FA0028F9D0E9B23046FFF7CE
:1010A00055FA00230122502130460094FFF750FAF0
:1010B00002213046FFF713FA0028F9D041463046A6
:1010C000FFF744FA5E486D1CFFF77AF8A842C1D8D2
:1010D000DAF804000028FBD0CAF804B0002302228A
:1010E000502130460094FFF733FA02213046FFF7D3
:1010F000F6F90028F9D0FE213046FFF727FA022141
:101100003046FFF7ECF90028F9D051213046FFF7BF
:101110001DFA1420CAF80800DAF808000028FBD1EC
:101120004848A0F814B0DFF8209148A14648DAF802
:101130000020FFF7E3FC00254348FFF741F80028B3
:101140003ED900BF19F80580002303225021304604
:101150000094FFF7FDF902213046FFF7C0F900289F
:10116000F9D0FE213046FFF7F1F902213046FFF7B2
:10117000B6F90028F9D045213046FFF7E7F90221FA
:101180003046FFF7ACF90028F9D0E9B23046FFF756
:10119000DDF900230122502130460094FFF7D8F9F1
:1011A00002213046FFF79BF90028F9D0414630462E
:1011B000FFF7CCF924486D1CFFF702F8A842C1D80C
:1011C000DAF804000028FBD0CAF804B01D48828A6F
:1011D0004FF40041F94011408182781CC11700EBA7
:1011E000517121F00701471A002302225021304695
:1011F0000094FFF7ADF902213046FFF770F900289F
:10120000F9D0FE213046FFF7A1F902213046FFF761
:1012100066F90028F9D051213046FFF797F91420DC
:10122000CAF80800DAF808000028FBD17DE70000C2
:1012300020000010005800401F1262C05000002023
:101240005C00002000100048A80000205469636B77
:1012500073203D20253569000000060001000000D4
:1012600000000200000200010004008000080040AD
:1012700000100020000020000000200000002000DE
:1012800000002000000020000000200000002000DE
:1012900000002000B4120008000000206C000000D4
:1012A000240B0008201300086C0000204C040000F0
:1012B000340B0008000000480010004800100048EF
:1012C00000100048001000480010004800100048BE
:1012D0000010004800100048000000000102030454
:1012E00001020304060708090000010002000400CF
:1012F000060008000A000C001000200040008000DA
:1013000000010000000000000000000000000000DC
:1013100048656C6C6F2C20576F726C642120000044
:040000050800018965
:00000001FF
